:020000040800F2
:1000000000300020590800087D050008850500081B
:1000100000000000000000000000000000000000E0
:100020000000000000000000000000008D05000836
:10003000000000000000000097050008A10500086E
:10004000A908000800000000A9080008A908000885
:10005000A9080008A9080008A9080008A9080008BC
:1000600000000000A9080008A9080008A908000865
:10007000A9080008A9080008A90800080000000055
:10008000A90800080000000000000000A9080008FE
:1000900000000000A9080008A9080008B105000830
:1000A00000000000A908000800000000A9080008DE
:1000B000E105000800000000000000000000000052
:1000C00010B5064C2378002B07D1054B002B02D02E
:1000D000044800E000BF0123237010BD6800002029
:1000E000000000002C420008044B10B5002B03D088
:1000F0000349044800E000BF10BDC04600000000F6
:100100006C0000202C420008002243088B4274D36C
:1001100003098B425FD3030A8B4244D3030B8B4208
:1001200028D3030C8B420DD3FF22090212BA030C11
:100130008B4202D31212090265D0030B8B4219D3F2
:1001400000E0090AC30B8B4201D3CB03C01A524112
:10015000830B8B4201D38B03C01A5241430B8B425A
:1001600001D34B03C01A5241030B8B4201D30B0343
:10017000C01A5241C30A8B4201D3CB02C01A52416A
:10018000830A8B4201D38B02C01A5241430A8B422D
:1001900001D34B02C01A5241030A8B4201D30B0216
:1001A000C01A5241CDD2C3098B4201D3CB01C01A30
:1001B000524183098B4201D38B01C01A524143093A
:1001C0008B4201D34B01C01A524103098B4201D328
:1001D0000B01C01A5241C3088B4201D3CB00C01A95
:1001E000524183088B4201D38B00C01A524143080D
:1001F0008B4201D34B00C01A5241411A00D2014632
:10020000524110467047FFE701B5002000F006F8A4
:1002100002BDC0460029F7D076E770477047C04658
:1002200090B58BB000AF14243B19180014231A00AA
:10023000002103F027FD274B5A6B264B04210A436C
:100240005A63244B5B6B042213403B613B69214B97
:100250005A6B204B20210A435A631E4B5B6B2022B2
:100260001340FB60FB681B4B5A6B1A4B01210A437E
:100270005A63184B5B6B01221340BB60BB68154B84
:100280005A6B144B02210A435A63124B5B6B0222D6
:1002900013407B607B68A023DB050022202118002F
:1002A00000F0DCFE21007B1820221A607B1801225E
:1002B0005A607B1800229A607B180022DA607A1854
:1002C000A023DB051100180000F056FDC046BD4616
:1002D0000BB090BD0010024080B500AF1B4B1C4A14
:1002E0001A601A4B1B4A5A60184B0A229A60174B25
:1002F0000122DA60154B00221A61144B00225A6168
:10030000124B00229A61114B0022DA610F4B00223E
:100310001A620E4B180000F0D9FE031E01D000F047
:1003200002F90A4B0021180001F082FD031E01D0E2
:1003300000F0F9F8054B0021180001F0C5FD031E7F
:1003400001D000F0F0F8C046BD4680BD840000201A
:10035000005400401A09102090B591B000AF7860A9
:100360002C23FB18180014231A00002103F08AFC28
:1003700010243B1918001C231A00002103F082FCF2
:100380007B681B68264A934246D13B1940221A607B
:100390003B190022DA603B19180002F031F9031E04
:1003A00001D000F0C0F81F4B5A6B1E4B02210A43CC
:1003B0005A631C4B5B6B02221340FB60FB682C21D1
:1003C0007B18C02292001A607B1812225A607B1898
:1003D00000229A607B180022DA607B1806221A61DC
:1003E0007B18114A1900100000F0C6FC0D4BDA6BA7
:1003F0000C4B802189030A43DA630A4BDA6B8023B2
:100400009B031340BB60BB6800220021172000F053
:1004100099FB172000F0ABFBC046BD4611B090BD64
:1004200000540040001002400004005080B582B02B
:1004300000AF7860054B391D0548012202F024FA0F
:100440007B681800BD4602B080BDC046FFFF0000BB
:10045000DC00002080B582B000AF00F026FA00F08A
:1004600025F8FFF7DDFE00F06FF9FFF735FF0023F9
:100470007B607B6801337B607B680A4A934201D9C9
:1004800000237B60A023DB052021180000F003FE81
:10049000054B180003F000FBFA235B00180000F086
:1004A00081FAE6E7881300004442000890B58DB059
:1004B00000AF14243B1918001C231A00002103F07C
:1004C000E1FB3B00180014231A00002103F0DAFBC3
:1004D0003B1901221A603B19802252025A603B19D3
:1004E000180001F03DFD031E01D000F01CF83B0098
:1004F00007221A603B0001225A603B0000229A60EA
:100500003B000022DA603B0000221A613B0001211F
:10051000180001F009FF031E01D000F004F8C046E6
:10052000BD460DB090BD80B500AF72B6C046C046A6
:10053000FDE7000080B582B000AF0F4B1A6C0E4B88
:1005400001210A431A640C4B1B6C012213407B608F
:100550007B68094BDA6B084B802149050A43DA6353
:10056000054BDA6B80235B0513403B603B68C0465C
:10057000BD4602B080BDC0460010024080B500AF4D
:10058000C046FDE780B500AFC046FDE780B500AFCF
:10059000C046BD4680BD80B500AFC046BD4680BDEB
:1005A00080B500AF00F0E2F9C046BD4680BD000056
:1005B00080B500AF094B1B689A69E023DB0013404C
:1005C00004D0064B180000F041FE03E0034B180076
:1005D00000F022FEC046BD4680BDC046840000201B
:1005E00080B500AF034B180002F0F2F9C046BD46DB
:1005F00080BDC046DC00002080B586B000AFF8604A
:10060000B9607A6000237B610AE000E000BF01006E
:10061000BB685A1CBA60CAB21A707B6901337B612D
:100620007A697B689A42F0DB7B681800BD4606B0A9
:1006300080BD80B586B000AFF860B9607A600023F5
:100640007B6109E0BB685A1CBA601B781800FFF791
:10065000EDFE7B6901337B617A697B689A42F1DB4D
:100660007B681800BD4606B080BD80B582B000AF83
:10067000786001235B421800BD4602B080BD80B5A2
:1006800082B000AF786039603B68802292015A6086
:1006900000231800BD4602B080BD80B582B000AF17
:1006A000786001231800BD4602B080BD80B584B0DB
:1006B00000AFF860B9607A6000231800BD4604B04E
:1006C00080BD000080B586B000AF7860144A154B3D
:1006D000D31A7B617B693B61134B1B68002B02D1F2
:1006E000114B124A1A60104B1A687B68D3183A698A
:1006F0009A4207D203F01CFB03000C221A6001236C
:100700005B4209E0084B1B68FB60074B1A687B687B
:10071000D218054B1A60FB681800BD4606B080BDB4
:100720000030002000100000D8000020C00200208F
:1007300080B500AF034B802212059A60C046BD46CB
:1007400080BDC04600ED00E080B500AF174B184AF1
:100750001A60164BE12252025A60144B8022520159
:100760009A60124B0022DA60104B8022D2001A618C
:100770000E4B0C225A610D4B00229A610B4B00224A
:10078000DA610A4B00221A62084B00225A62074BB8
:1007900000229A62054B180002F020F8031E01D0D7
:1007A000FFF7C1FEC046BD4680BDC046DC0000204C
:1007B0000044004090B58BB000AF786014243B1922
:1007C000180014231A00002103F05CFA7B681B68F0
:1007D0001F4A934238D11F4BDA6B1E4B802189028E
:1007E0000A43DA631B4BDA6B80239B0213403B61A5
:1007F0003B69184B5A6B174B01210A435A63154B3F
:100800005B6B01221340FB60FB6821007B180C220C
:100810001A607B1802225A607B1800229A607B18AB
:100820000022DA607B1801221A617A18A023DB0506
:100830001100180000F0A0FA002200211C2000F096
:1008400081F91C2000F093F9C046BD460BB090BD65
:1008500000440040001002400D488546FFF768FF45
:10086000002103E00B4B5B58435004310A480B4B0B
:1008700042189A42F6D30A4A02E000231360043277
:10088000084B9A42F9D303F059FAFFF7E3FDFEE76C
:1008900000300020D4420008000000206800002042
:1008A00068000020C0020020FEE780B582B000AFE3
:1008B000FB1D00221A70032000F00EF8031E03D067
:1008C000FB1D01221A7001E0FFF734FEFB1D1B78AF
:1008D0001800BD4602B080BD90B585B000AF78600D
:1008E0000F23FB1800221A701D4B1B78002B2BD0F6
:1008F0001C4B1C681A4B1B781900FA239800FFF751
:1009000003FC030019002000FFF7FEFB03001800A2
:1009100000F03DF9031E12D17B68032B0AD87968D9
:1009200001235B420022180000F00CF90E4B7A689C
:100930001A600DE00F23FB1801221A7008E00F2344
:10094000FB1801221A7003E00F23FB1801221A7012
:100950000F23FB181B781800BD4605B090BDC0469C
:1009600008000020000000200400002080B500AF37
:10097000054B1B781A00054B1B68D218034B1A60F5
:10098000C046BD4680BDC046080000207001002062
:1009900080B500AF024B1B681800BD4680BDC04645
:1009A0007001002080B584B000AF7860FFF7F0FFE1
:1009B0000300BB607B68FB60FB68013305D00A4B1A
:1009C0001B781A00FB689B18FB60C046FFF7E0FF2E
:1009D0000200BB68D31AFA689A42F7D8C046C046EC
:1009E000BD4604B080BDC0460800002080B582B07E
:1009F00000AF0200FB1D1A70FB1D1B787F2B09D86E
:100A0000FB1D1B781A001F231A40044B0121914043
:100A10000A001A60C046BD4602B080BD00E100E099
:100A200090B583B000AF02003960FB1D1A70FB1D4A
:100A30001B787F2B28D82F4AFB1D1B785BB29B08A5
:100A4000C0339B009B58FA1D1278110003220A4004
:100A5000D200FF2191400A00D2431A4011003B68A6
:100A60009B01FF221A40FB1D1B7818000323034043
:100A7000DB009A401F48FB1D1B785BB29B080A43B2
:100A8000C0339B001A5031E01B4AFB1D1B78190034
:100A90000F230B40083B9B0806339B00D3180433FD
:100AA0001B68FA1D1278110003220A40D200FF21B0
:100AB00091400A00D2431A4011003B689B01FF227B
:100AC0001A40FB1D1B78180003230340DB009A40EB
:100AD0000948FB1D1B781C000F232340083B9B0883
:100AE0000A4306339B00C31804331A60C046BD4650
:100AF00003B090BD00E100E000ED00E080B582B001
:100B000000AF78607B685A1E80235B049A4201D351
:100B1000012310E00A4B7A68013A5A6001235B42D4
:100B200003211800FFF77CFF054B00229A60044B5D
:100B300007221A6000231800BD4602B080BDC046DF
:100B400010E000E080B584B000AFB9607A600F219A
:100B50007B18021C1A70BA687B181B785BB21100F4
:100B60001800FFF75DFFC046BD4604B080BD80B5EC
:100B700082B000AF0200FB1D1A70FB1D1B785BB238
:100B80001800FFF733FFC046BD4602B080BD80B5F8
:100B900082B000AF78607B681800FFF7AFFF0300FA
:100BA0001800BD4602B080BD80B582B000AF78604D
:100BB0007B68002B01D1012350E07B6825229B5CE0
:100BC000DBB2022B08D07B680422DA637B68242224
:100BD00000219954012341E07B681B681A687B68F7
:100BE0001B680E218A431A607B685B6C1A687B68FD
:100BF0005B6C1C490A401A607B681B681A687B683A
:100C00001B6801218A431A60174B59687B681B6C6B
:100C10001C22134001229A40134B0A435A607B68FE
:100C20009B6C7A68D26C5A607B681B6D002B0CD071
:100C30007B681B6D1A687B681B6D0A490A401A6045
:100C40007B685B6D7A68926D5A607B682522012112
:100C500099547B6824220021995400231800BD4632
:100C600002B080BDFFFEFFFF0000024080B584B0EF
:100C700000AF78600F23FB1800221A707B682422D3
:100C8000002199547B6824229B5C012B01D1022313
:100C90005EE07B682422012199547B6825229B5CBD
:100CA000DBB2022B07D07B680422DA630F23FB1828
:100CB00001221A7049E07B681B681A687B681B6810
:100CC0000E218A431A607B681B681A687B681B6860
:100CD00001218A431A607B685B6C1A687B685B6CD5
:100CE0001D490A401A601D4B59687B681B6C1C2209
:100CF000134001229A40194B0A435A607B689B6C4F
:100D00007A68D26C5A607B681B6D002B0CD07B68B4
:100D10001B6D1A687B681B6D0F490A401A607B685F
:100D20005B6D7A68926D5A607B6825220121995427
:100D30007B682422002199547B689B6B002B04D094
:100D40007B689B6B7A68100098470F23FB181B7811
:100D50001800BD4604B080BDFFFEFFFF000002404A
:100D600080B582B000AF78607B6825229B5CDBB2E7
:100D70001800BD4602B080BD80B586B000AF786077
:100D8000396000233B6153E13B681B6801213A69EC
:100D900091400A001340FB60FB68002B00D144E146
:100DA0003B685B68022B03D03B685B68122B25D144
:100DB0003B69DA087B6808329200D3587B613B6953
:100DC000072213409B000F229A401300DA437B69ED
:100DD00013407B613B681B690F221A403B69072166
:100DE0000B409B009A4013007A6913437B613B6977
:100DF000DA087B68083292007969D1507B681B68F9
:100E00007B613B695B0003229A401300DA437B69F4
:100E100013407B613B685B6803221A403B695B00BF
:100E20009A4013007A6913437B617B687A691A6080
:100E30003B685B68012B0BD03B685B68022B07D0DB
:100E40003B685B68112B03D03B685B68122B30D189
:100E50007B689B687B613B695B0003229A401300BF
:100E6000DA437B6913407B613B68DA683B695B006E
:100E70009A4013007A6913437B617B687A699A60B0
:100E80007B685B687B6101223B699A401300DA430F
:100E90007B6913407B613B685B681B0901221A4038
:100EA0003B699A4013007A6913437B617B687A69D6
:100EB0005A603B685B68032B17D07B68DB687B61FB
:100EC0003B695B0003229A401300DA437B691340BD
:100ED0007B613B689A683B695B009A4013007A69C2
:100EE00013437B617B687A69DA603B685A688023C8
:100EF0005B05134000D198E0534A3B699B081833C7
:100F00009B009B587B613B6903221340DB000F224F
:100F10009A401300DA437B6913407B617A68A0230F
:100F2000DB059A4219D07B68484A934213D07B680C
:100F3000474A93420DD07B68464A934207D07B686C
:100F4000454A934201D1052308E0062306E0032326
:100F500004E0022302E0012300E000233A690321B8
:100F60000A40D20093407A6913437B6136493B695A
:100F70009B0818339B007A695A50334A8023D35810
:100F80007B61FB68DA437B6913407B613B685A688D
:100F900080235B02134003D07A69FB6813437B61B3
:100FA000294980227B698B50274A8423D3587B614F
:100FB000FB68DA437B6913407B613B685A68802396
:100FC0009B02134003D07A69FB6813437B611E497F
:100FD00084227B698B501C4B1B687B61FB68DA4366
:100FE0007B6913407B613B685A6880235B03134035
:100FF00003D07A69FB6813437B61134B7A691A60EB
:10100000114B5B687B61FB68DA437B6913407B6152
:101010003B685A6880239B03134003D07A69FB68BE
:1010200013437B61084B7A695A603B6901333B612A
:101030003B681A683B69DA40131E00D0A4E6C0463C
:10104000C046BD4606B080BD0018024000040050F6
:1010500000080050000C00500014005080B582B011
:1010600000AF786008001100BB1C021C1A807B1CBA
:101070000A1C1A707B1C1B78002B04D0BB1C1A881E
:101080007B689A6103E0BB1C1A887B689A62C04641
:10109000BD4602B080BD80B584B000AF78600A0064
:1010A000BB1C1A807B685B69FB60BB1C1B88FA68F1
:1010B00013401A04FB68DB43B91C09880B401A4330
:1010C0007B689A61C046BD4604B080BD80B582B0E1
:1010D00000AF78607B68002B01D101238FE07B6833
:1010E00041229B5CDBB2002B07D17B6840220021B0
:1010F00099547B681800FFF72FF97B68412224215F
:1011000099547B681B681A687B681B6801218A43B5
:101110001A607B685A687B681B683B490A401A6101
:101120007B681B689A687B681B6838490A409A602C
:101130007B68DB68012B08D17B689A687B681B6839
:10114000802109020A439A6007E07B689A687B68FD
:101150001B68842109020A439A607B68DB68022BC2
:1011600009D17B681B685A687B681B68802109016C
:101170000A435A6007E07B681B685A687B681B68F3
:1011800023490A405A607B681B685A687B681B6861
:1011900020490A435A607B681B68DA687B681B68D1
:1011A0001A490A40DA607B681A697B685B691A43EE
:1011B00011007B689B691A027B681B680A43DA602E
:1011C0007B68D9697B681A6A7B681B680A431A6066
:1011D0007B681B681A687B681B6801210A431A60D8
:1011E0007B6800225A647B684122202199547B68E5
:1011F00000221A637B6842220021995400231800C0
:10120000BD4602B080BDC046FFFFFFF0FF7FFFFF7D
:10121000FFF7FFFF0080000280B584B000AF786068
:101220007B681B689B69FB607B681B681B68BB60F5
:101230007B685B6B002B05D07B685B6BBA68F968D9
:1012400078689847C046BD4604B080BD80B586B07A
:1012500000AF78607B681B689B697B617B681B685B
:101260001B683B617A6980235B0013400ED03B69A9
:10127000802213400AD07B685B6C01221A437B6892
:101280005A647B681B6880225200DA617A69802385
:10129000DB0013400ED03B69802213400AD07B68EC
:1012A0005B6C08221A437B685A647B681B68802247
:1012B000D200DA617A6980239B0013400ED03B692B
:1012C000802213400AD07B685B6C02221A437B6841
:1012D0005A647B681B6880229200DA617B685B6CD1
:1012E000FB60FB680B22134005D0FA687B68110095
:1012F000180000F0CDFBC046BD4606B080BD80B5ED
:1013000082B000AF7860C046BD4602B080BD80B5F7
:1013100082B000AF7860C046BD4602B080BD80B5E7
:1013200082B000AF786008001100FB1C021C1A702C
:101330003B000A1C1A80C046BD4602B080BD80B585
:1013400082B000AF7860C046BD4602B080BD80B5B7
:1013500082B000AF7860C046BD4602B080BD80B5A7
:1013600082B000AF7860C046BD4602B080BD0000CC
:1013700080B586B000AFF860B9607A60FB68DB6A60
:101380007B61BB683B61FB6840229B5C012B01D108
:101390000223E6E0FB684022012199543B692022A8
:1013A000134009D07B682022134005D03A69FB68BE
:1013B0001100180000F0E4F93B691022134052D0EC
:1013C0007B68102213404ED0FB685B8D9BB2002BD4
:1013D0002DD1FB6841229B5CDBB2282B0BD17A69B3
:1013E00080239B049A4206D13A69FB6811001800D9
:1013F00000F0F6FA36E0FB6841229B5CDBB2292B59
:1014000010D17B69594A93420CD0FB681B681022AB
:10141000DA61FB68180000F066FCFB68180000F059
:101420004BF91FE0FB681B681022DA6191E0FB6852
:101430001B681022DA61FB685B6C04221A43FB68AC
:101440005A647B69002B05D07A6980235B049A4239
:1014500000D07EE0FB685A6CFB681100180000F0B9
:1014600017FB76E075E03B69042213402FD07B68C0
:10147000042213402BD0FB685B8D9BB2002B18D04D
:10148000FB681B685A6AFB685B6AD2B21A70FB6819
:101490005B6A5A1CFB685A62FB681B8D013B9AB25F
:1014A000FB681A85FB685B8D9BB2013B9AB2FB68B7
:1014B0005A85FB685B8D9BB2002B4CD17B692B4A14
:1014C000934248D0FB68180000F0F6F843E03B690F
:1014D000082213400AD07B680822134006D03A69DC
:1014E000FB681100180000F043F835E03B69022268
:1014F000134031D07B68022213402DD0FB685B8DF6
:101500009BB2002B18D0FB685B6A1A78FB681B68DB
:101510009A62FB685B6A5A1CFB685A62FB685B8DC7
:101520009BB2013B9AB2FB685A85FB681B8D013B5D
:101530009AB2FB681A850FE07A6980235B049A42AD
:1015400002D07B69002B07D1FB68180000F0B4F8CB
:1015500002E0C04600E0C046FB68402200219954EA
:1015600000231800BD4606B080BDC0460000FFFF46
:10157000B0B584B000AF786039607B6841229B5C75
:10158000DBB21A0028231340282B00D088E07B68A8
:101590001B689B691B0CDAB20F257B1901210A40DD
:1015A0001A707B681B689B691B0C9AB20C203B1855
:1015B000FE210A401A807B681B689B689AB20A2445
:1015C0003B199205920D1A807B681B68DB689AB202
:1015D0000823FB18FE210A401A807B68DB68022B77
:1015E00048D121007B181B88DB099AB23B181B8865
:1015F00053409BB21A000623134020D13B187A189F
:1016000012881A807B689B6C5A1C7B689A647B6882
:101610009B6C022B4CD17B6800229A647B681B6810
:101620000822DA617B684022002199543B181A880D
:101630007B1919787B681800FFF771FE38E00C24DD
:101640003B190822BA1812881A8080231A027B6874
:101650001100180000F088FB7B684022002199549B
:101660003B191A880F23FB1819787B681800FFF7BD
:1016700056FE1DE080231A027B681100180000F05E
:1016800073FB7B684022002199540C23FB181A88B5
:101690000F23FB1819787B681800FFF740FE07E05E
:1016A0007B681B680822DA617B684022002199541C
:1016B000C046BD4604B0B0BD80B584B000AF786010
:1016C0007B681B681B68FB607B6842220021995481
:1016D000FA688023DB01134008D07B681B681A6816
:1016E0007B681B6824490A401A600CE0FA68802372
:1016F0001B02134007D07B681B681A687B681B6855
:101700001E490A401A607B6841229B5CDBB2292B90
:1017100014D17B684122282199547B6821221A63C5
:101720007B680121180000F01FFB7B68402200212C
:1017300099547B681800FFF7E2FD19E07B684122AD
:101740009B5CDBB22A2B13D17B6841222821995460
:101750007B6822221A637B680221180000F004FBD8
:101760007B684022002199547B681800FFF7CFFD69
:10177000C046BD4604B080BDFFBFFFFFFF7FFFFF37
:1017800080B586B000AF786039607B681B681B68E5
:101790003B613B687B610F203B187A684121525CBA
:1017A0001A707B681B682022DA613B181B78212B9A
:1017B00003D03B181B78292B09D1824A7B68110082
:1017C000180000F0D1FA7B6821221A6320E00F2272
:1017D000BB181B78222B03D0BB181B782A2B09D1EE
:1017E000794A7B681100180000F0BEFA7B6822225B
:1017F0001A630DE00F23FB181B78282B08D1734ABE
:101800007B681100180000F0AFFA7B6800221A63B1
:101810007B681B685A687B681B68802109020A4341
:101820005A607B681B685A687B681B6868490A4075
:101830005A607B68180000F056FA3A698023DB0191
:10184000134013D07B681B681A687B681B6861496A
:101850000A401A607B689B6B002B1FD07B689B6BD8
:101860001B685B689AB27B685A8517E03A698023E7
:101870001B02134012D07B681B681A687B681B68C8
:1018800055490A401A607B68DB6B002B06D07B68E9
:10189000DB6B1B685B689AB27B685A857B690422A4
:1018A000134020D07B69042293437B617B681B68D3
:1018B0005A6A7B685B6AD2B21A707B685B6A5A1C90
:1018C0007B685A627B681B8D002B0CD07B681B8D5C
:1018D000013B9AB27B681A857B685B8D9BB2013BAA
:1018E0009AB27B685A857B685B8D9BB2002B05D0D2
:1018F0007B685B6C04221A437B685A647B684222D3
:10190000002199547B6800225A637B685B6C002B32
:1019100013D07B685A6C7B681100180000F0B8F88F
:101920007B6841229B5CDBB2282B47D17A697B68BC
:101930001100180000F054F840E07B68DB6A274A89
:10194000934216D07B681800FFF7B6FE7B68234AE7
:10195000DA627B684122202199547B6800221A6355
:101960007B684022002199547B681800FFF7E7FC50
:1019700024E07B6841229B5CDBB2222B0FD17B6889
:101980004122202199547B6800221A637B684022FF
:10199000002199547B681800FFF7B9FC0EE07B68C2
:1019A0004122202199547B6800221A637B684022DF
:1019B000002199547B681800FFF7A1FCC046BD4682
:1019C00006B080BD0180000002800000038000009E
:1019D00000E800FEFFBFFFFFFF7FFFFF0000FFFFEB
:1019E00080B582B000AF786039607B68264ADA62E1
:1019F0007B6800221A637B684122202199547B680E
:101A00004222002199547B6800225A633B680422D9
:101A1000134022D07B681B685A6A7B685B6AD2B22B
:101A20001A707B685B6A5A1C7B685A627B681B8DE4
:101A3000002B12D07B681B8D013B9AB27B681A8504
:101A40007B685B8D9BB2013B9AB27B685A857B6851
:101A50005B6C04221A437B685A640C4A7B68110051
:101A6000180000F081F97B681B681022DA617B683E
:101A70004022002199547B681800FFF760FCC046A3
:101A8000BD4602B080BDC0460000FFFF03800000DD
:101A900080B584B000AF786039600F203B187A6859
:101AA0004121525C1A707B684222002199547B6864
:101AB000724ADA627B6800225A857B685A6C3B68FE
:101AC0001A437B685A643B181B78282B07D03B18B5
:101AD0001B78292B03D03B181B782A2B0CD17B6851
:101AE0000321180000F040F97B6841222821995415
:101AF0007B68634A5A6332E0624A7B6811001800CF
:101B000000F032F97B68180000F0EDF87B684122A4
:101B10009B5CDBB2602B1FD07B6841222021995453
:101B20007B681B689B6920221340202B14D17B68A3
:101B30001B689B6910221340102B09D17B681B681E
:101B40001022DA617B685B6C04221A437B685A645A
:101B50007B681B682022DA617B6800225A637B68FD
:101B60001B6BBB607B689B6B002B3BD0BB68112B56
:101B700002D0BB68212B35D17B681B681A68802393
:101B8000DB011A408023DB019A4207D17B681B6886
:101B90001A687B681B683C490A401A607B689B6B2B
:101BA0001800FFF7DDF80300012B16D07B689B6B54
:101BB000364A9A637B684022002199547B689B6B6C
:101BC0001800FFF753F8031E51D07B689B6B9A6B8C
:101BD0007B689B6B1800904749E07B68180000F019
:101BE00059F844E07B68DB6B002B3BD0BB68122BC1
:101BF00002D0BB68222B35D17B681B681A68802312
:101C00001B021A4080231B029A4207D17B681B6883
:101C10001A687B681B681E490A401A607B68DB6B88
:101C20001800FFF79DF80300012B16D07B68DB6BD3
:101C3000164A9A637B684022002199547B68DB6BCB
:101C40001800FFF713F8031E13D07B68DB6B9A6B49
:101C50007B68DB6B180090470BE07B68180000F096
:101C600019F806E07B68180000F014F802E0C0469E
:101C700000E0C046C046BD4604B080BD0000FFFF86
:101C80007113000803800000FFBFFFFF2B1D000839
:101C9000FF7FFFFF80B582B000AF78607B68412294
:101CA0009B5CDBB2602B0FD17B68412220219954D1
:101CB0007B6800221A637B684022002199547B686C
:101CC0001800FFF74CFB0AE07B6800221A637B6870
:101CD0004022002199547B681800FFF738FBC0466A
:101CE000BD4602B080BD80B582B000AF78607B6831
:101CF0001B689B6902221340022B03D17B681B687F
:101D000000229A627B681B689B6901221340012BA9
:101D100007D07B681B689A697B681B6801210A43AE
:101D20009A61C046BD4602B080BD80B584B000AFA8
:101D300078607B689B6AFB60FB689B6B002B03D021
:101D4000FB689B6B00229A63FB68DB6B002B03D064
:101D5000FB68DB6B00229A63FB681800FFF79AFFB1
:101D6000C046BD4604B080BD80B584B000AF786089
:101D70000A00BB1C1A800023FB60BB1C1B880122CD
:101D8000134010D0FB6842221343FB607B68412262
:101D90009B5CDBB21A0028231340282B03D0FB687E
:101DA000B0221343FB60BB1C1B880222134010D0DF
:101DB000FB6844221343FB607B6841229B5CDBB2DF
:101DC0001A0028231340282B03D0FB68B0221343AA
:101DD000FB60BB1C00229B5E002B03DAFB68B82271
:101DE0001343FB60BB1C1B88102B03D1FB689022A4
:101DF0001343FB60BB1C1B88202B03D1FB682022F4
:101E00001343FB60BB1C1B88402B03D1FB684022A3
:101E10001343FB607B681B681A68FB68D9437B68C7
:101E20001B680A401A60C046BD4604B080BD000071
:101E300080B582B000AF786039607B6841229B5CDE
:101E4000DBB2202B38D17B6840229B5C012B01D177
:101E5000022332E07B684022012199547B684122B1
:101E6000242199547B681B681A687B681B680121D0
:101E70008A431A607B681B681A687B681B68114973
:101E80000A401A607B681B6819687B681B683A689F
:101E90000A431A607B681B681A687B681B6801210B
:101EA0000A431A607B684122202199547B684022B2
:101EB00000219954002300E002231800BD4602B01F
:101EC00080BDC046FFEFFFFF80B584B000AF7860F3
:101ED00039607B6841229B5CDBB2202B39D17B6867
:101EE00040229B5C012B01D1022333E07B6840221E
:101EF000012199547B684122242199547B681B68F5
:101F00001A687B681B6801218A431A607B681B681A
:101F10001B68FB60FB68114A1340FB603B681B02B7
:101F2000FA681343FB607B681B68FA681A607B6879
:101F30001B681A687B681B6801210A431A607B686A
:101F40004122202199547B6840220021995400238A
:101F500000E002231800BD4604B080BDFFF0FFFF83
:101F600080B586B000AF78607B68002B01D101237B
:101F7000D0E17B681B680122134000D169E0C84BA7
:101F80009B68382213407B617B69082B05D17B68F5
:101F90005B68002B5DD10123BCE17B685A6880231C
:101FA0005B029A4207D1BE4B1A68BD4B80214902A1
:101FB0000A431A6020E07B685A68A023DB029A4239
:101FC0000ED1B74B1A68B64B8021C9020A431A607A
:101FD000B34B1A68B24B802149020A431A600BE0E6
:101FE000AF4B1A68AE4BAF490A401A60AC4B1A6847
:101FF000AB4BAD490A401A607B685B68002B14D07C
:10200000FEF7C6FC03003B6108E0FEF7C1FC0200DE
:102010003B69D31A642B01D903237BE1A04B1A68D7
:1020200080239B021340F0D013E0FEF7B1FC0300C5
:102030003B6108E0FEF7ACFC02003B69D31A642B5D
:1020400001D9032366E1964B1A6880239B02134053
:10205000F0D17B681B680222134000D186E0904BD0
:102060009B68382213407B617B69002B2FD17B68F2
:10207000DB68002B01D101234CE1894B5B688B4A63
:10208000134019007B685B691A02854B0A435A604A
:102090007B69002B12D1824B1B68854A13401900C3
:1020A0007B681A697E4B0A431A607D4B1B68DB0A0A
:1020B000072213407F4ADA407F4B1A607F4B1B6830
:1020C0001800FEF709FC031E50D0012322E17B68B3
:1020D000DB68002B30D0724B1B68754A1340190027
:1020E0007B681A696E4B0A431A606D4B1A686C4B19
:1020F000802149000A431A60FEF74AFC03003B6155
:1021000008E0FEF745FC02003B69D31A022B01D917
:102110000323FFE0624B1A688023DB001340F0D0FA
:102120005F4B5B68614A134019007B685B691A0268
:102130005B4B0A435A6019E0594B1A68584B604987
:102140000A401A60FEF724FC03003B6108E0FEF73A
:102150001FFC02003B69D31A022B01D90323D9E0EB
:102160004F4B1A688023DB001340F0D17B681B685B
:102170000822134042D04A4B9B6838221340182B48
:1021800005D17B689B69002B38D10123C2E07B68B5
:102190009B69002B19D0424B1A6E414B01210A4317
:1021A0001A66FEF7F5FB03003B6108E0FEF7F0FB63
:1021B00002003B69D31A022B01D90323AAE0384B52
:1021C0001B6E02221340F1D018E0354B1A6E344BCF
:1021D00001218A431A66FEF7DBFB03003B6108E03E
:1021E000FEF7D6FB02003B69D31A022B01D9032369
:1021F00090E02B4B1B6E02221340F1D17B681B68D1
:102200000422134000D184E00F23FB1800221A702F
:10221000234B9B6838221340202B06D17B689B6898
:10222000002B00D075E0012374E07B689B68012BD4
:1022300006D11B4BDA6D1A4B01210A43DA651CE00B
:102240007B689B68052B0CD1154BDA6D144B042170
:102250000A43DA65124BDA6D114B01210A43DA6544
:102260000BE00F4BDA6D0E4B01218A43DA650C4B04
:10227000DA6D0B4B04218A43DA657B689B68002B7F
:1022800028D0FEF785FB03003B611DE0FEF780FBD5
:1022900002003B69D31A0B4A934215D9032339E054
:1022A00000100240FFFFFEFFFFFFFBFFFF80FFFF6C
:1022B000FFC7FFFF006CDC020000002004000020CC
:1022C000FFFEFFFF88130000144BDB6D022213405A
:1022D000DCD013E0FEF75CFB03003B6109E0FEF796
:1022E00057FB02003B69D31A0D4A934201D90323DD
:1022F00010E00A4BDB6D02221340F0D10F23FB18D4
:102300001B78012B05D1054BDA6B044B05490A40BC
:10231000DA6300231800BD4606B080BD00100240FD
:1023200088130000FFFFFFEF80B584B000AF786036
:1023300039607B68002B01D10123E9E0764B1B68F3
:10234000072213403A689A421ED9734B1B68072232
:1023500093431900704B3A680A431A60FEF718FB62
:102360000300FB6009E0FEF713FB0200FB68D31AD1
:102370006A4A934201D90323CAE0674B1B680722CC
:1023800013403A689A42EED17B681B6802221340E0
:1023900017D07B681B680422134008D0604B9B68F1
:1023A000604A1A405E4BB02109010A439A605C4BB7
:1023B0009B685D4A134019007B68DA68584B0A43F2
:1023C0009A607B681B680122134055D0544B1B68F0
:1023D0001C22934319007B689A68514B0A431A6088
:1023E0007B685B68012B07D14D4B1A6880239B02E9
:1023F00013401FD101238BE07B685B68002B07D162
:10240000474B1A688023DB00134013D101237FE080
:102410007B685B68032B06D1414B1B6E0222134085
:1024200008D1012374E03E4BDB6D0222134001D141
:1024300001236DE03A4B9B680722934319007B68A8
:102440005A68374B0A439A60FEF7A2FA0300FB6012
:1024500009E0FEF79DFA0200FB68D31A2F4A934267
:1024600001D9032354E02E4B9B6838221A407B6825
:102470005B68DB009A42ECD1274B1B6807221340B4
:102480003A689A421ED2244B1B68072293431900D4
:10249000214B3A680A431A60FEF77AFA0300FB60A0
:1024A00009E0FEF775FA0200FB68D31A1B4A934253
:1024B00001D903232CE0184B1B68072213403A680C
:1024C0009A42EED17B681B680422134009D0144B5A
:1024D0009B68164A134019007B681A69104B0A431F
:1024E0009A6000F02BF801000D4B9B681B0A0F222D
:1024F0001A400F4B9200D3581F2213400A00DA40B3
:102500000C4B1A600C4B1B681800FEF7E5F9030032
:102510001800BD4604B080BD0020024088130000B2
:1025200000100240FF84FFFFFFF0FFFFFF8FFFFF5F
:1025300054420008000000200400002080B582B052
:1025400000AF1C4B9B68382213400FD1194B1B68FE
:10255000DB0A0722134001229A4013003B603968CE
:102560001548FDF7D1FD03007B601EE0114B9B6811
:1025700038221340082B02D10F4B7B6015E00D4B26
:102580009B6838221340202B03D180231B027B60E1
:102590000BE0084B9B6838221340182B03D1FA2319
:1025A000DB017B6001E000237B607B681800BD4697
:1025B00002B080BD00100240006CDC0280B500AFAC
:1025C000024B1B681800BD4680BDC04600000020BD
:1025D00080B500AFFFF7F2FF0100074B9B681B0BB4
:1025E00007221A40054B9200D3581F221340D940AE
:1025F0000B001800BD4680BD001002409442000848
:1026000080B586B000AF78601323FB1800221A70E3
:102610001223FB1800221A707B681A6880239B0221
:10262000134000D179E011203B1800221A70644B4E
:10263000DA6B80235B05134010D1614BDA6B604B82
:10264000802149050A43DA635D4BDA6B80235B0521
:102650001340BB60BB683B1801221A70584BDA6DFF
:10266000C0239B0013407B617B69002B19D07B68E2
:102670009B697A699A4214D0514BDB6D514A1340E1
:102680007B614F4BDA6D4E4B802149020A43DA657C
:102690004B4BDA6D4A4B4C490A40DA65484B7A6934
:1026A000DA657B690122134016D0FEF771F9030049
:1026B000FB600CE0FEF76CF90200FB68D31A434A9A
:1026C000934204D91323FB1803221A7004E03C4BF5
:1026D000DB6D02221340EDD01323FB181B78002B77
:1026E0000AD1374BDB6D374A134019007B689A6972
:1026F000334B0A43DA6505E01223FB181322BA189C
:1027000012781A701123FB181B78012B05D12C4B62
:10271000DA6B2B4B2E490A40DA637B681B68012277
:10272000134009D0264B5B6D0322934319007B684D
:102730009A68234B0A435A657B681B684022134002
:1027400009D01F4B5B6D234A134019007B68DA6880
:102750001B4B0A435A657B681A688023DB011340D0
:1027600008D0174B5B6D9B0099087B685A69144B26
:102770000A435A657B681A6880231B01134009D0FD
:102780000F4B5B6D144A134019007B681A690C4BA0
:102790000A435A657B681B68002B09DA084B1B68E3
:1027A000E022934319007B685A68054B0A431A607C
:1027B0001223FB181B781800BD4606B080BDC0462A
:1027C00000100240FFFCFFFFFFFFFEFF8813000028
:1027D000FFFFFFEFFFCFFFFFFF3FFFFF80B582B09E
:1027E00000AF78607B68002B01D1012346E07B6855
:1027F00088229B58002B07D17B68842200219954A2
:102800007B681800FDF7D6FF7B6888222421995049
:102810007B681B681A687B681B6801218A431A6001
:102820007B689B6A002B03D07B68180000F090FD4A
:102830007B68180000F00EFC0300012B01D101237E
:102840001CE07B681B685A687B681B680D490A405E
:102850005A607B681B689A687B681B682A218A43D8
:102860009A607B681B681A687B681B6801210A43B1
:102870001A607B68180000F01FFE03001800BD46B8
:1028800002B080BDFFB7FFFF80B58AB002AFF8602D
:10289000B9603B60BB1D1A80FB6888229B58202BC7
:1028A00000D090E0BB68002B03D0BB1D1B88002B21
:1028B00001D1012388E0FB689A6880235B019A427A
:1028C00009D1FB681B69002B05D1BB6801221340AD
:1028D00001D0012378E0FB68902200219950FB6829
:1028E000882221219950FEF753F803007B61FB6891
:1028F000BA1D542112885A52FB68BA1D56211288FB
:102900005A52FB689A6880235B019A4208D1FB689F
:102910001B69002B04D10023FB61BB68BB6103E092
:10292000BB68FB610023BB6130E07A69F8683B68F3
:10293000009313000022802100F068FE031E05D0E2
:10294000FB6888222021995003233DE0FB69002B7E
:102950000BD1BB691B881A00FB681B68D205D20D1E
:102960009A62BB690233BB6107E0FB691A78FB68B6
:102970001B689A62FB690133FB61FB6856229B5A14
:102980009BB2013B99B2FB6856229952FB685622D2
:102990009B5A9BB2002BC8D17A69F8683B680093B8
:1029A00013000022402100F031FE031E05D0FB6819
:1029B000882220219950032306E0FB6888222021E9
:1029C0009950002300E002231800BD4608B080BDE6
:1029D000B0B5AAB000AF78607B681B68DB69A42241
:1029E000B9180B607B681B681B68A02039180B6046
:1029F0007B681B689B689C2439190B601100BB180D
:102A00001B68A24A13409822BD182B60BB181B6894
:102A1000002B1AD17B181B682022134015D03B18BD
:102A20001B682022134005D13B191A6880235B05DF
:102A300013400AD07B685B6F002B00D1DCE27B681F
:102A40005B6F7A6810009847D6E29823FB181B68E2
:102A5000002B00D122E19C23FB181B688C4A1340F9
:102A600006D1A023FB181B688A4A134000D115E148
:102A7000A423FB181B680122134012D0A023FB18CB
:102A80001A6880235B0013400BD07B681B6801220F
:102A90001A627B6890229B5801221A437B6890211E
:102AA0005A50A423FB181B680222134011D09C2308
:102AB000FB181B68012213400BD07B681B680222A5
:102AC0001A627B6890229B5804221A437B689021EB
:102AD0005A50A423FB181B680422134011D09C23D6
:102AE000FB181B68012213400BD07B681B68042273
:102AF0001A627B6890229B5802221A437B689021BD
:102B00005A50A423FB181B680822134017D0A02397
:102B1000FB181B682022134005D19C23FB181B685F
:102B20005B4A13400BD07B681B6808221A627B68E3
:102B300090229B5808221A437B6890215A50A42364
:102B4000FB181A6880231B01134013D0A023FB1825
:102B50001A688023DB0413400CD07B681B6880223A
:102B600012011A627B6890229B5820221A437B68CC
:102B700090215A507B6890229B58002B00D13DE257
:102B8000A423FB181B682022134015D0A023FB1898
:102B90001B682022134006D19C23FB181A6880234F
:102BA0005B05134008D07B685B6F002B04D07B680B
:102BB0005B6F7A68100098477B6890229B5894213D
:102BC0007A1813607B681B689B6840221340402B77
:102BD00004D07B181B68282213404CD07B68180057
:102BE00000F07EFD7B681B689B6840221340402BF1
:102BF0003CD1EFF310833B663B6E90203A18136094
:102C000001237B667B6E83F31088C0467B681B685C
:102C10009A687B681B6840218A439A603B181B684E
:102C2000BB66BB6E83F31088C0467B6880229B58CE
:102C3000002B16D07B6880229B58174A9A637B68CA
:102C400080229B581800FEF711F8031E1CD07B68E9
:102C500080229B589B6B7A688021525810009847BD
:102C600012E07B68180000F0E1F90DE07B681800C5
:102C700000F0DCF908E07B68180000F0D7F97B6809
:102C8000902200219950B9E1C046B7E10F08000039
:102C90000100001020010004AD3700087B68DB6EE6
:102CA000012B00D03EE1A423FB181B681022134027
:102CB00000D137E1A023FB181B681022134000D17C
:102CC00030E17B681B6810221A627B681B689B6876
:102CD00040221340402B00D0A4E07B6880229B5808
:102CE0001B685A687E217B181A807B181B88002B72
:102CF00000D185E17B685C229B5A7A1812889A423F
:102D000000D37DE17B687A185E2112885A527B6875
:102D100080229B581B681B682022134070D1EFF360
:102D200010833B633B6BBB6701237B637B6B83F34C
:102D30001088C0467B681B681A687B681B68B449AA
:102D40000A401A60BB6FBB63BB6B83F31088C0463D
:102D5000EFF31083FB63FB6B7B6701233B643B6CEE
:102D600083F31088C0467B681B689A687B681B6881
:102D700001218A439A607B6F7B647B6C83F31088AC
:102D8000C046EFF31083BB64BB6C3B670123FB645D
:102D9000FB6C83F31088C0467B681B689A687B686D
:102DA0001B6840218A439A603B6F3B653B6D83F310
:102DB0001088C0467B688C22202199507B680022B5
:102DC000DA66EFF310837B657B6DFB660123BB65E1
:102DD000BB6D83F31088C0467B681B681A687B68EC
:102DE0001B6810218A431A60FB6EFB65FB6D83F341
:102DF0001088C0467B6880229B581800FDF7D4FEDF
:102E00007B6802221A677B685C229A5A7B685E2183
:102E10005B5A9BB2D31A9AB27B681100180000F07B
:102E20000DF9EDE07B685C22995A7B685E229B5A23
:102E30009AB28E203B188A1A1A807B685E229B5AAF
:102E40009BB2002B00D1DDE03B181B88002B00D18A
:102E5000D8E0EFF31083FB60FB6888243A19136015
:102E600001233B613B6983F31088C0467B681B6884
:102E70001A687B681B6867490A401A603B191B681F
:102E80007B617B6983F31088C046EFF31083BB61DD
:102E9000BB6984243A1913600123FB61FB6983F346
:102EA0001088C0467B681B689A687B681B685A4913
:102EB0000A409A603B191B683B623B6A83F31088A7
:102EC000C0467B688C22202199507B680022DA66FC
:102ED0007B6800225A67EFF310837B627B6A802451
:102EE0003A1913600123BB62BB6A83F31088C046A2
:102EF0007B681B681A687B681B6810218A431A600C
:102F00003B191B68FB62FB6A83F31088C0467B6831
:102F100002221A673B181A887B681100180000F01B
:102F20008DF86FE0A423FB181A6880235B0313401D
:102F300010D09C23FB181A688023DB03134009D0B0
:102F40007B681B68802252031A627B68180000F0BD
:102F500070FC5AE0A423FB181B688022134016D093
:102F6000A023FB181B688022134006D19C23FB186A
:102F70001A6880231B04134009D07B689B6F002BC9
:102F800042D07B689B6F7A68100098473CE0A4238E
:102F9000FB181B68402213400AD0A023FB181B68B3
:102FA0004022134004D07B68180000F016FC2CE08F
:102FB000A423FB181A6880231B0413400BD0A02302
:102FC000FB181A688023DB05134004D07B681800C7
:102FD00000F03FFC19E0A423FB181A6880235B046F
:102FE000134012D0A023FB181B68002B0DDA7B685E
:102FF000180000F026FC08E0C04606E0C04604E0E9
:10300000C04602E0C04600E0C046BD462AB0B0BDA2
:10301000FFFEFFFFDFFEFFFFFEFFFFEF80B582B088
:1030200000AF7860C046BD4602B080BD80B582B0BA
:1030300000AF7860C046BD4602B080BD80B582B0AA
:1030400000AF78600A00BB1C1A80C046BD4602B0C3
:1030500080BD000080B588B000AF78601E23FB18EB
:1030600000221A707B689A687B681B691A437B6828
:103070005B691A437B68DB6913437B617B681B6870
:103080001B68AB4A134019007B681B687A690A43C6
:103090001A607B681B685B68A64A134019007B684E
:1030A000DA687B681B680A435A607B689B697B61AE
:1030B0007B681B6A7A6913437B617B681B689B682A
:1030C0009D4A134019007B681B687A690A439A601D
:1030D0007B681B68DB6A0F22934319007B685A6A7E
:1030E0007B681B680A43DA627B681B68934A9342D9
:1030F00027D1934B5B6D03221340032B17D01BD8B2
:10310000022B0AD018D8002B02D0012B0AD013E0D2
:103110001F23FB1800221A7021E01F23FB18022234
:103120001A701CE01F23FB1804221A7017E01F23DB
:10313000FB1808221A7012E01F23FB1810221A70C5
:103140000DE07B681B687F4A934204D11F23FB1864
:1031500000221A7003E01F23FB1810221A707B68EC
:10316000DA6980231B029A4200D06FE01F23FB180C
:103170001B78082B1FD022DC042B17D01FDC002B60
:1031800002D0022B05D01AE0FFF722FA0300BB6140
:103190001CE06B4B1B685B090722134001331900CD
:1031A0006948FCF7B1FF0300BB610FE0FFF7C6F908
:1031B0000300BB610AE080231B02BB6106E0002321
:1031C000BB611E23FB1801221A70C046BB69002B8D
:1031D00000D197E07B685A6A5C4B5200D35A1900C1
:1031E000B869FCF791FF03005A007B685B685B08D5
:1031F000D2187B685B6819001000FCF785FF03009C
:103200003B613B690F2B1CD93A6980235B029A42D0
:1032100017D23B699AB20E203B180F218A431A80BD
:103220003B695B089BB20722134099B23B183A18DE
:1032300012880A431A807B681B683A181288DA6081
:1032400060E01E23FB1801221A705BE01F23FB18AD
:103250001B78082B1FD022DC042B17D01FDC002B7F
:1032600002D0022B05D01AE0FFF7B2F90300BB61D0
:103270001CE0334B1B685B09072213400133190024
:103280003148FCF741FF0300BB610FE0FFF756F93F
:103290000300BB610AE080231B02BB6106E0002340
:1032A000BB611E23FB1801221A70C046BB69002BAC
:1032B00028D07B685A6A254B5200D35A1900B86946
:1032C000FCF722FF03001A007B685B685B08D218DA
:1032D0007B685B6819001000FCF716FF03003B6178
:1032E0003B690F2B0AD93A6980235B029A4205D2C7
:1032F0003B699AB27B681B68DA6003E01E23FB1807
:1033000001221A707B686A22012199527B68682227
:10331000012199527B6800225A677B6800229A67D4
:103320001E23FB181B781800BD4608B080BDC046A0
:10333000F369FFCFFFCFFFFFFFF4FF11003801401B
:103340000010024000440040006CDC02B44200085F
:1033500080B582B000AF78607B689B6A082213401A
:103360000BD07B681B685B684A4A134019007B6876
:103370009A6B7B681B680A435A607B689B6A0122D0
:1033800013400BD07B681B685B68434A13401900ED
:103390007B68DA6A7B681B680A435A607B689B6AB1
:1033A000022213400BD07B681B685B683B4A1340CA
:1033B00019007B681A6B7B681B680A435A607B683C
:1033C0009B6A042213400BD07B681B685B68344AFD
:1033D000134019007B685A6B7B681B680A435A606C
:1033E0007B689B6A102213400BD07B681B689B682C
:1033F0002C4A134019007B68DA6B7B681B680A4310
:103400009A607B689B6A202213400BD07B681B6804
:103410009B68254A134019007B681A6C7B681B68FF
:103420000A439A607B689B6A402213401DD07B68E8
:103430001B685B681D4A134019007B685A6C7B68E7
:103440001B680A435A607B685A6C80235B039A426C
:103450000BD17B681B685B68154A134019007B68B9
:103460009A6C7B681B680A435A607B689B6A80225F
:1034700013400BD07B681B685B680E4A1340190031
:103480007B68DA6C7B681B680A435A60C046BD469D
:1034900002B080BDFF7FFFFFFFFFFDFFFFFFFEFFCC
:1034A000FFFFFBFFFFEFFFFFFFDFFFFFFFFFEFFF70
:1034B000FFFF9FFFFFFFF7FF80B592B002AF78607C
:1034C0007B68902200219950FDF762FA0300FB63AC
:1034D0007B681B681B6808221340082B2DD1FB6BEF
:1034E000802291037868474A0092002200F08EF80B
:1034F000031E22D0EFF310837B627B6ABB63012340
:10350000BB62BB6A83F31088C0467B681B681A687D
:103510007B681B6880218A431A60BB6BFB62FB6A75
:1035200083F31088C0467B688822202199507B68ED
:10353000842200219954032360E07B681B681B6888
:1035400004221340042B46D1FB6B8022D103786800
:103550002C4A0092002200F059F8031E3BD0EFF3F2
:103560001083FB60FB687B6301233B613B6983F352
:103570001088C0467B681B681A687B681B682249F4
:103580000A401A607B6B7B617B6983F31088C046BD
:10359000EFF31083BB61BB693B630123FB61FB69F4
:1035A00083F31088C0467B681B689A687B681B6839
:1035B00001218A439A603B6B3B623B6A83F310882C
:1035C000C0467B688C22202199507B688422002190
:1035D0009954032312E07B688822202199507B684C
:1035E0008C22202199507B680022DA667B680022B9
:1035F0001A677B6884220021995400231800BD4675
:1036000010B080BDFFFFFF01DFFEFFFF80B584B07B
:1036100000AFF860B9603B60FB1D1A704BE0BB69FE
:10362000013348D0FDF7B4F902003B68D31ABA69F8
:103630009A4202D3BB69002B01D103234BE0FB6804
:103640001B681B680422134035D0FB681B68DB69CC
:1036500008221340082B11D1FB681B6808221A624C
:10366000FB68180000F03CF8FB6890220821995094
:10367000FB6884220021995401232CE0FB681B681D
:10368000DA6980231B011A4080231B019A4212D160
:10369000FB681B68802212011A62FB68180000F0A8
:1036A0001FF8FB68902220219950FB68842200219A
:1036B000995403230FE0FB681B68DB69BA68134069
:1036C000BA68D31A5A425341DBB21A00FB1D1B7869
:1036D0009A42A4D000231800BD4604B080BD00006B
:1036E00080B58EB000AF7860EFF310837B617B69AB
:1036F0007B630123BB61BB6983F31088C0467B6891
:103700001B681A687B681B6826490A401A607B6B35
:10371000FB61FB6983F31088C046EFF310833B62C3
:103720003B6A3B6301237B627B6A83F31088C0465C
:103730007B681B689A687B681B681B490A409A6013
:103740003B6BBB62BB6A83F31088C0467B68DB6E51
:10375000012B18D1EFF31083BB60BB68FB62012320
:10376000FB60FB6883F31088C0467B681B681A689F
:103770007B681B6810218A431A60FB6A3B613B69C6
:1037800083F31088C0467B688C22202199507B6887
:103790000022DA667B6800225A67C046BD460EB03A
:1037A00080BDC046DFFEFFFFFEFFFFEF80B584B0A7
:1037B00000AF78607B689B6AFB60FB685E2200213B
:1037C0009952FB68562200219952FB681800FFF7B6
:1037D0002DFCC046BD4604B080BD80B586B000AFAC
:1037E0007860EFF31083BB60BB687B610123FB60F3
:1037F000FB6883F31088C0467B681B681A687B6887
:103800001B6840218A431A607B693B613B6983F3F3
:103810001088C0467B688822202199507B6800224E
:103820009A677B681800FFF7F9FBC046BD4606B0F3
:1038300080BD80B582B000AF7860C046BD4602B0A2
:1038400080BD80B582B000AF7860C046BD4602B092
:1038500080BD80B582B000AF7860C046BD4602B082
:1038600080BD0000002310B5040003604360836046
:1038700081814366C281036143618361190008222B
:103880005C3000F0FFF90B4B246263620A4BA362C9
:103890000A4BE3620A4B23630A4B9C4205D00A4B56
:1038A0009C4202D0094B9C4203D12000583000F0CA
:1038B00069FA10BDAD3A0008D53A00080D3B000882
:1038C000393B000874010020DC0100204402002084
:1038D00010B5034A0349044800F06CF810BDC04617
:1038E0000C000020914000081C00002041680B4B98
:1038F00010B50400994201D000F0CAFBA168084B42
:10390000994202D0200000F0C3FBE168054B9942C8
:1039100002D0200000F0BCFB10BDC04674010020A6
:10392000DC0100204402002010B5094B094A0421A3
:103930001A6009480022FFF795FF01220921074874
:10394000FFF790FF022212210548FFF78BFF10BD01
:10395000AC020020D138000874010020DC010020F6
:103960004402002010B5024800F00DFA10BDC04618
:10397000B502002010B5024800F006FA10BDC0469E
:10398000B502002010B50400FFF7ECFF236A002BFE
:1039900002D0FFF7EFFF10BD044B2362044B1B68FE
:1039A000002BF6D1FFF7C0FFF3E7C046ED38000863
:1039B000AC020020F7B51400002600900191A56824
:1039C0006768013F04D52468002CF8D13000FEBDA3
:1039D000AB89012B08D90E22AB5E013304D029003C
:1039E0000098019B984706436835EAE7036A70B57B
:1039F00005000E008468002B01D1FFF7C3FF636E42
:103A0000DB0705D4A3899B0502D4A06D00F0BBF9A8
:103A1000A3891B0702D52369002B1FD12100280091
:103A200000F0D2F8002819D001256D42636EDB0743
:103A300005D4A3899B0502D4A06D00F0A5F9280048
:103A400070BD0136A360002B04DAA2699A4216DC2D
:103A50000A2914D023685A1C22601970A36831788F
:103A6000013B0029EDD1A360002B0FDA22002800D2
:103A70000A3100F067F80130D6D00A25D6E72200D7
:103A8000280000F05FF80130E8D1CDE723685A1C28
:103A900022600A221A70F0E710B5034B0100186883
:103AA000FFF7A4FF10BDC0461800002070B50C0041
:103AB0000E25495F00F014F9002803DB636D1B1825
:103AC000636570BDA389024A1340A381F9E7C0462C
:103AD000FFEFFFFFF8B51F008B8905000C001600F3
:103AE000DB0505D50E23C95E0022022300F0E4F8B1
:103AF000A389054A28001340A38132000E23E15E0A
:103B00003B0000F001F9F8BDFFEFFFFF70B50C00BE
:103B10000E25495F00F0D0F8A389421C03D1054A65
:103B20001340A38170BD802252011343A3816065BD
:103B3000F8E7C046FFEFFFFF10B50E23C95E00F0A7
:103B4000A9F810BDF8B506000D001400002804D037
:103B5000036A002B01D1FFF715FFA369A360A389B6
:103B60001B0702D52369002B09D12100300000F08A
:103B70002BF8002803D001256D422800F8BD2369E9
:103B80002068EFB2C01A6369EDB2834205DC210000
:103B9000300000F07DFA0028EDD1A3680130013B30
:103BA000A36023685A1C22601F706369834204D09B
:103BB000A389DB07E1D50A2DDFD12100300000F019
:103BC00067FA0028D9D0D6E72D4B70B505001868E4
:103BD0000C00002804D0036A002B01D1FFF7D2FEAD
:103BE0000C23E25E130723D4D30607D409232B60EA
:103BF000402301201343A38140423AE0520713D5EA
:103C0000616B002908D023004433994202D0280078
:103C100000F0BCF8002363632422A3899343A381AB
:103C200000236360236923600823A2891343A381CF
:103C30002369002B0BD1A0218022A3898900920047
:103C40000B40934203D02100280000F077FA0C23A8
:103C5000E25E012113000B400A420BD00023A36057
:103C600063695B42A36100202369834201D113068B
:103C7000BED470BD910700D46369A360F3E7C0466A
:103C80001800002003008218934200D17047197079
:103C90000133F9E7002370B5064D040008002B60DE
:103CA000FCF7E3FC431C03D12B68002B00D02360FE
:103CB00070BDC046B002002070B5040008001100BD
:103CC0001A000023054D2B60FCF7F0FC431C03D1C8
:103CD0002B68002B00D0236070BDC046B0020020CE
:103CE00070B50400080011001A000023054D2B6078
:103CF000FCF782FC431C03D12B68002B00D023600F
:103D000070BDC046B002002070B50400080011006C
:103D10001A000023054D2B60FCF78BFC431C03D1DC
:103D20002B68002B00D0236070BDC046B00200207D
:103D3000014B18687047C0461800002070B5002677
:103D40000C4C0D4D641BA410A64209D1002600F0B6
:103D50006DFA0A4C0A4D641BA410A64205D170BD31
:103D6000B300EB5898470136EEE7B300EB5898479D
:103D70000136F2E7CC420008CC420008D0420008ED
:103D8000CC420008704770477047000070B50500CE
:103D90000C1E10D0043C2368002B00DAE418280025
:103DA00000F0E0F81D4A1368002B05D16360146031
:103DB000280000F0DFF870BDA34208D92068211860
:103DC0008B42F3D119685B6809182160EEE71A008D
:103DD0005B68002B01D0A342F9D911685018A042AA
:103DE0000BD120680918501811608342E0D118687F
:103DF0005B68411811605360DAE7A04202D90C23D6
:103E00002B60D5E7206821188B4203D119685B68C5
:103E10000918216063605460CAE7C046BC020020F4
:103E200070B50F4E0D0031680400002902D100F07A
:103E3000EBF930602900200000F0E6F9431C03D1C3
:103E400001256D42280070BD0323C51C9D43A84277
:103E5000F8D0291A200000F0D7F90130F2D1EFE7AD
:103E6000B8020020F7B50322CB1C934308330500AA
:103E70001F000C2B34D20C27B94233D8280000F095
:103E800071F8374E33681C00002C2FD13900280000
:103E9000FFF7C6FF0400431C5FD134680094009B09
:103EA000002B4AD1002C52D023682800E318009937
:103EB000019300F0A9F9019B834248D123682800AF
:103EC000FF1A3900FFF7ACFF013040D02368DB193F
:103ED000236033685A68002A33D1009B336019E0AD
:103EE000002BC9DA0C232B600020FEBD2168C91B02
:103EF00020D40B290AD9E2192760A34204D13260E9
:103F000063681160536005E05A60F9E76268A34294
:103F10000ED13260280000F02DF8200007220B306F
:103F2000231D9043C21A9842DFD01B1AA350DCE72E
:103F30005A60EFE723006468A6E7009C636800937B
:103F4000ADE71A005B68A342FBD10023DAE70C233C
:103F500028002B6000F00EF8C6E70760DAE7C046DD
:103F6000BC02002010B50248FFF70DFF10BDC0468F
:103F7000B402002010B50248FFF706FF10BDC0468E
:103F8000B4020020F7B50C228B5E05000C001A0766
:103F900056D44A68002A02DC0A6C002A4EDDE76A21
:103FA000002F4BD0002280202E682A601A0040018A
:103FB000216A0240034233D0626DA3895B0706D5B4
:103FC0006368D21A636B002B01D0236CD21A0023D2
:103FD0002800E76A216AB847A289431C06D12968EC
:103FE0001D2946D8294B0B41DB0742D400236360CF
:103FF00023692360D20405D5431C02D12B68002B12
:1040000000D16065616B2E60002917D02300443316
:10401000994202D02800FFF7B9FE002363630DE048
:1040200001232800B8470200431CC6D12B68002B8F
:10403000C3D01D2B01D0162B1AD12E6000201EE0FC
:104040000E69002EFAD00F680E60BA1B0192002292
:104050009B0700D14A69A260019B002BEEDDA36A99
:1040600032001F002800019B216AB847002807DCA6
:10407000A2894023012013431BB2A3814042FEBD0D
:10408000019B36181B1A0193E6E7C046FEFFBFDF0F
:104090000B6970B505000C00002B02D1002528002B
:1040A00070BD002804D0036A002B01D1FFF76AFC21
:1040B0000C22A35E002BF1D0626ED20704D49B05C4
:1040C00002D4A06DFFF75FFE28002100FFF75AFF22
:1040D000636E0500DB07E2D4A3899B05DFD4A06DE6
:1040E000FFF752FEDBE7000070B50E001D000E2347
:1040F000C95E140096B000290CDAB2898023110041
:1041000019401A4214D18023DB000020296023606B
:1041100016B070BD6A4600F053F80028EDDBF023BE
:1041200001991B021940044BC9184B425941EAE757
:1041300000214023E9E7C04600E0FFFFF0B502267A
:104140008B8905000C0085B0334207D0230047332C
:10415000236023610123636105B0F0BD03AB02AAB4
:10416000FFF7C2FF029F019039002800FFF77AFE97
:10417000002808D10C22A35E9A05EDD403229343B4
:104180001E43A681E2E78023A28920601343A38116
:10419000039B20616761002B0CD028000E23E15E99
:1041A00000F020F8002805D00323A2899A43023B9F
:1041B0001343A381A389019A1343A381CCE7000091
:1041C000002370B5064D0400080011002B60FCF7B9
:1041D00056FA431C03D12B68002B00D0236070BD1E
:1041E000B0020020002370B5064D040008002B60CB
:1041F000FCF753FA431C03D12B68002B00D023603B
:1042000070BDC046B0020020002370B5064D04000A
:1042100008002B60FCF756FA431C03D12B68002BD7
:1042200000D0236070BDC046B0020020F8B5C04683
:10423000F8BC08BC9E467047F8B5C046F8BC08BC40
:044240009E467047DF
:1042440068656C6C6F20776F726C642120000000CD
:10425400000000000000000000000000000000005A
:10426400000000000000000000000000000000004A
:104274000100000002000000030000000400000030
:10428400060000000700000008000000090000000C
:10429400000000000000000000000000000000001A
:1042A4000100000002000000030000000400000000
:1042B400010002000400060008000A000C001000BF
:0842C400200040008000000111
:0442CC00E9000008FD
:0442D000C100000821
:1042D400006CDC020400000001000000000000008B
:1042E40003000000740100201C00002000000000F6
:1042F40074010020DC0100204402002000000000C2
:1043040000000000000000000000000000000000A9
:104314000000000000000000000000000000000099
:104324000000000000000000000000000000000089
:08433400000000000000000081
:04000005080008598E
:00000001FF
